{
  "contractName": "Election",
  "abi": [
    {
      "constant": true,
      "inputs": [],
      "name": "candidatesCount",
      "outputs": [
        {
          "name": "",
          "type": "uint256"
        }
      ],
      "payable": false,
      "stateMutability": "view",
      "type": "function"
    },
    {
      "constant": true,
      "inputs": [
        {
          "name": "",
          "type": "uint256"
        }
      ],
      "name": "candidates",
      "outputs": [
        {
          "name": "id",
          "type": "uint256"
        },
        {
          "name": "name",
          "type": "string"
        },
        {
          "name": "voteCount",
          "type": "uint256"
        }
      ],
      "payable": false,
      "stateMutability": "view",
      "type": "function"
    },
    {
      "constant": true,
      "inputs": [
        {
          "name": "",
          "type": "address"
        }
      ],
      "name": "voters",
      "outputs": [
        {
          "name": "",
          "type": "bool"
        }
      ],
      "payable": false,
      "stateMutability": "view",
      "type": "function"
    },
    {
      "inputs": [],
      "payable": false,
      "stateMutability": "nonpayable",
      "type": "constructor"
    },
    {
      "anonymous": false,
      "inputs": [
        {
          "indexed": true,
          "name": "_candidateId",
          "type": "uint256"
        }
      ],
      "name": "voteEvent",
      "type": "event"
    },
    {
      "constant": false,
      "inputs": [
        {
          "name": "_candidateId",
          "type": "uint256"
        }
      ],
      "name": "vote",
      "outputs": [],
      "payable": false,
      "stateMutability": "nonpayable",
      "type": "function"
    }
  ],
  "bytecode": "0x608060405234801561001057600080fd5b5061005e6040805190810160405280600b81526020017f43616e64696461746520310000000000000000000000000000000000000000008152506100b0640100000000026401000000009004565b6100ab6040805190810160405280600b81526020017f43616e64696461746520320000000000000000000000000000000000000000008152506100b0640100000000026401000000009004565b6101d1565b60016000815480929190600101919050555060606040519081016040528060015481526020018281526020016000815250600080600154815260200190815260200160002060008201518160000155602082015181600101908051906020019061011b92919061012c565b506040820151816002015590505050565b828054600181600116156101000203166002900490600052602060002090601f016020900481019282601f1061016d57805160ff191683800117855561019b565b8280016001018555821561019b579182015b8281111561019a57825182559160200191906001019061017f565b5b5090506101a891906101ac565b5090565b6101ce91905b808211156101ca5760008160009055506001016101b2565b5090565b90565b6103ff806101e06000396000f300608060405260043610610062576000357c0100000000000000000000000000000000000000000000000000000000900463ffffffff1680630121b93f146100675780632d35a8a2146100945780633477ee2e146100bf578063a3ec138d14610173575b600080fd5b34801561007357600080fd5b50610092600480360381019080803590602001909291905050506101ce565b005b3480156100a057600080fd5b506100a96102eb565b6040518082815260200191505060405180910390f35b3480156100cb57600080fd5b506100ea600480360381019080803590602001909291905050506102f1565b6040518084815260200180602001838152602001828103825284818151815260200191508051906020019080838360005b8381101561013657808201518184015260208101905061011b565b50505050905090810190601f1680156101635780820380516001836020036101000a031916815260200191505b5094505050505060405180910390f35b34801561017f57600080fd5b506101b4600480360381019080803573ffffffffffffffffffffffffffffffffffffffff1690602001909291905050506103b3565b604051808215151515815260200191505060405180910390f35b60011515600260003373ffffffffffffffffffffffffffffffffffffffff1673ffffffffffffffffffffffffffffffffffffffff16815260200190815260200160002060009054906101000a900460ff1615151415151561022e57600080fd5b6001548110151561023e57600080fd5b600080828152602001908152602001600020600201600081548092919060010191905055506001600260003373ffffffffffffffffffffffffffffffffffffffff1673ffffffffffffffffffffffffffffffffffffffff16815260200190815260200160002060006101000a81548160ff021916908315150217905550807fa247b679b8fc65eb95979774186f3f4068743d7c38c37ca4b1181dcb7ca2507d60405160405180910390a250565b60015481565b6000602052806000526040600020600091509050806000015490806001018054600181600116156101000203166002900480601f0160208091040260200160405190810160405280929190818152602001828054600181600116156101000203166002900480156103a35780601f10610378576101008083540402835291602001916103a3565b820191906000526020600020905b81548152906001019060200180831161038657829003601f168201915b5050505050908060020154905083565b60026020528060005260406000206000915054906101000a900460ff16815600a165627a7a723058205e899a84683f78bd719ada6f37c1c5dabd8d2d58c3c155f6d680e42a73f53d070029",
  "source": "// specify compiler version\r\npragma solidity ^0.4.24;\r\n\r\n// define contract\r\ncontract Election {\r\n  \r\n  // data\r\n  // define candidate structure\r\n  struct Candidate {\r\n    uint id;\r\n    string name;\r\n    uint voteCount;\r\n  }\r\n\r\n  // define map to store multiple candidates\r\n  mapping(uint => Candidate) public candidates;\r\n\r\n  // number of candidate\r\n  uint public candidatesCount;\r\n\r\n  // define map to store voters and state of vote\r\n  mapping(address => bool) public voters;\r\n\r\n  // event to communicate with outside of blockchain\r\n  event voteEvent (\r\n    uint indexed _candidateId\r\n  );\r\n\r\n  // function\r\n\r\n  // constructor function\r\n  constructor () public {\r\n    addCandidate(\"Candidate 1\");\r\n    addCandidate(\"Candidate 2\");\r\n  }\r\n\r\n  // add candidates function\r\n  function addCandidate(string _candidateName) private {\r\n    candidatesCount ++;\r\n    candidates[candidatesCount] = Candidate(candidatesCount, _candidateName, 0);\r\n  }\r\n\r\n  // vote function\r\n  function vote(uint _candidateId) public {\r\n    require(voters[msg.sender] != true);\r\n    require(_candidateId < candidatesCount);\r\n    candidates[_candidateId].voteCount ++;\r\n    voters[msg.sender] = true;\r\n    emit voteEvent(_candidateId);\r\n  }\r\n}\r\n\r\n// pragma solidity ^0.4.24;\r\n\r\n// contract Election {\r\n\r\n//   // build structure for candidate\r\n//   struct Candidate {\r\n//     uint id;\r\n//     string name;\r\n//     uint voteCount;\r\n//   }\r\n\r\n//   // create a map to store candidate, this could be change to array ?\r\n//   mapping(uint => Candidate) public candidates;  \r\n\r\n//   // control the numer of candidates\r\n//   uint public candidatesCount;\r\n\r\n//   // control voters\r\n//   mapping(address => bool) public voters;\r\n\r\n//   // http://solidity.readthedocs.io/en/v0.4.21/contracts.html#events\r\n//   // event to communicate with outside of blockchain\r\n//   event votedEvent (\r\n//     uint indexed _candidateId,\r\n//     address voter\r\n//   );\r\n\r\n//   constructor() public {\r\n//     addCandidate(\"Candidate1\");\r\n//     addCandidate(\"Candidate2\");\r\n//   }\r\n\r\n//   function addCandidate (string _name) private {\r\n//     candidatesCount ++;\r\n//     candidates[candidatesCount] = Candidate(candidatesCount, _name, 0);\r\n//   }\r\n\r\n//   function vote (uint _candidateId) public {\r\n//     // valid vote condition\r\n//     require(!voters[msg.sender]);\r\n//     require(_candidateId < candidatesCount);\r\n\r\n//     // increase vote count and remove vote righ\r\n//     candidates[_candidateId].voteCount += 1;\r\n//     voters[msg.sender] = true;\r\n\r\n//     // emit vote event\r\n//     emit votedEvent(_candidateId, msg.sender);\r\n//   }\r\n// }",
  "sourcePath": "C:\\dapp\\election2\\contracts\\Election.sol",
  "compiler": {
    "name": "solc",
    "version": "0.4.24+commit.e67f0147.Emscripten.clang"
  },
  "schemaVersion": "2.0.0",
  "updatedAt": "2018-07-29T17:38:53.103Z"
}